:100000000C942A000C943C000C943C000C943C0092
:100010000C943C000C943C000C943C000C943C0070
:100020000C943C000C943C000C943C000C943C0060
:100030000C943C000C943C000C943C000C943C0050
:100040000C943C000C943C000C943C000C943C0040
:100050000C943C0011241FBECFE5D4E0DEBFCDBF21
:1000600010E0A0E6B0E001C01D92A436B107E1F7B0
:100070000E944E000C9456000C94000080E487B956
:1000800087E886B908958770806487B9369A349B6B
:10009000FECF349A24B135B1C90108958FEF81BBE9
:1000A00014BA85BB969A82B312BAFCCFF894FFCFEC
:00000001FF
